{
  "contractName": "EmployeeContract",
  "abi": [
    {
      "inputs": [
        {
          "internalType": "address[]",
          "name": "_addresses",
          "type": "address[]"
        },
        {
          "internalType": "string[]",
          "name": "_names",
          "type": "string[]"
        },
        {
          "internalType": "uint256[]",
          "name": "_salaries",
          "type": "uint256[]"
        }
      ],
      "payable": false,
      "stateMutability": "nonpayable",
      "type": "constructor"
    },
    {
      "anonymous": false,
      "inputs": [
        {
          "indexed": false,
          "internalType": "address",
          "name": "_employee",
          "type": "address"
        },
        {
          "indexed": false,
          "internalType": "uint256",
          "name": "_newSalary",
          "type": "uint256"
        },
        {
          "indexed": false,
          "internalType": "uint256",
          "name": "_now",
          "type": "uint256"
        }
      ],
      "name": "ChangeOfSalaryEvent",
      "type": "event"
    },
    {
      "constant": true,
      "inputs": [],
      "name": "getEmployees",
      "outputs": [
        {
          "internalType": "address[]",
          "name": "",
          "type": "address[]"
        }
      ],
      "payable": false,
      "stateMutability": "view",
      "type": "function"
    },
    {
      "constant": false,
      "inputs": [
        {
          "internalType": "address",
          "name": "_employee",
          "type": "address"
        },
        {
          "internalType": "uint256",
          "name": "_newSalary",
          "type": "uint256"
        }
      ],
      "name": "modifySalary",
      "outputs": [],
      "payable": false,
      "stateMutability": "nonpayable",
      "type": "function"
    },
    {
      "constant": false,
      "inputs": [
        {
          "internalType": "address",
          "name": "_employee",
          "type": "address"
        },
        {
          "internalType": "uint256",
          "name": "_newPosition",
          "type": "uint256"
        }
      ],
      "name": "changeEmployeePosition",
      "outputs": [],
      "payable": false,
      "stateMutability": "nonpayable",
      "type": "function"
    },
    {
      "constant": false,
      "inputs": [
        {
          "internalType": "address",
          "name": "_employee",
          "type": "address"
        }
      ],
      "name": "approveEmployeePosition",
      "outputs": [],
      "payable": false,
      "stateMutability": "nonpayable",
      "type": "function"
    },
    {
      "constant": false,
      "inputs": [
        {
          "internalType": "address",
          "name": "_employee",
          "type": "address"
        },
        {
          "internalType": "string",
          "name": "_name",
          "type": "string"
        },
        {
          "internalType": "uint256",
          "name": "_salary",
          "type": "uint256"
        },
        {
          "internalType": "uint256",
          "name": "_position",
          "type": "uint256"
        }
      ],
      "name": "addNewEmployee",
      "outputs": [],
      "payable": false,
      "stateMutability": "nonpayable",
      "type": "function"
    },
    {
      "constant": true,
      "inputs": [],
      "name": "getEmployeesInfo",
      "outputs": [
        {
          "components": [
            {
              "internalType": "string",
              "name": "name",
              "type": "string"
            },
            {
              "internalType": "uint256",
              "name": "salary",
              "type": "uint256"
            },
            {
              "internalType": "bool[]",
              "name": "approvals",
              "type": "bool[]"
            },
            {
              "internalType": "enum EmployeeContract.Position",
              "name": "position",
              "type": "uint8"
            }
          ],
          "internalType": "struct EmployeeContract.Employee[]",
          "name": "",
          "type": "tuple[]"
        }
      ],
      "payable": false,
      "stateMutability": "view",
      "type": "function"
    }
  ],
  "bytecode": "0x6080604052604051806080016040528060011515151581526020016001151515158152602001600115151515815260200160011515151581525060029060046200004b92919062000855565b50604051806080016040528060001515151581526020016000151515158152602001600015151515815260200160001515151581525060039060046200009392919062000855565b50348015620000a157600080fd5b5060405162002fe438038062002fe48339818101604052620000c7919081019062000cb2565b60405180608001604052808360006008811115620000e157fe5b81518110620000ec57fe5b6020026020010151815260200182600060088111156200010857fe5b815181106200011357fe5b6020026020010151815260200160028054806020026020016040519081016040528092919081815260200182805480156200019357602002820191906000526020600020906000905b82829054906101000a900460ff161515815260200190600101906020826000010492830192600103820291508084116200015c5790505b5050505050815260200160006008811115620001ab57fe5b8152506000808560006008811115620001c057fe5b81518110620001cb57fe5b602002602001015173ffffffffffffffffffffffffffffffffffffffff1673ffffffffffffffffffffffffffffffffffffffff16815260200190815260200160002060008201518160000190805190602001906200022b92919062000902565b506020820151816001015560408201518160020190805190602001906200025492919062000989565b5060608201518160030160006101000a81548160ff021916908360088111156200027a57fe5b0217905550905050604051806080016040528083600160088111156200029c57fe5b81518110620002a757fe5b602002602001015181526020018260016008811115620002c357fe5b81518110620002ce57fe5b6020026020010151815260200160028054806020026020016040519081016040528092919081815260200182805480156200034e57602002820191906000526020600020906000905b82829054906101000a900460ff16151581526020019060010190602082600001049283019260010382029150808411620003175790505b50505050508152602001600160088111156200036657fe5b81525060008085600160088111156200037b57fe5b815181106200038657fe5b602002602001015173ffffffffffffffffffffffffffffffffffffffff1673ffffffffffffffffffffffffffffffffffffffff1681526020019081526020016000206000820151816000019080519060200190620003e692919062000902565b506020820151816001015560408201518160020190805190602001906200040f92919062000989565b5060608201518160030160006101000a81548160ff021916908360088111156200043557fe5b0217905550905050604051806080016040528083600260088111156200045757fe5b815181106200046257fe5b6020026020010151815260200182600260088111156200047e57fe5b815181106200048957fe5b6020026020010151815260200160028054806020026020016040519081016040528092919081815260200182805480156200050957602002820191906000526020600020906000905b82829054906101000a900460ff16151581526020019060010190602082600001049283019260010382029150808411620004d25790505b50505050508152602001600260088111156200052157fe5b81525060008085600260088111156200053657fe5b815181106200054157fe5b602002602001015173ffffffffffffffffffffffffffffffffffffffff1673ffffffffffffffffffffffffffffffffffffffff1681526020019081526020016000206000820151816000019080519060200190620005a192919062000902565b50602082015181600101556040820151816002019080519060200190620005ca92919062000989565b5060608201518160030160006101000a81548160ff02191690836008811115620005f057fe5b0217905550905050604051806080016040528083600360088111156200061257fe5b815181106200061d57fe5b6020026020010151815260200182600360088111156200063957fe5b815181106200064457fe5b602002602001015181526020016002805480602002602001604051908101604052809291908181526020018280548015620006c457602002820191906000526020600020906000905b82829054906101000a900460ff161515815260200190600101906020826000010492830192600103820291508084116200068d5790505b5050505050815260200160036008811115620006dc57fe5b8152506000808560036008811115620006f157fe5b81518110620006fc57fe5b602002602001015173ffffffffffffffffffffffffffffffffffffffff1673ffffffffffffffffffffffffffffffffffffffff16815260200190815260200160002060008201518160000190805190602001906200075c92919062000902565b506020820151816001015560408201518160020190805190602001906200078592919062000989565b5060608201518160030160006101000a81548160ff02191690836008811115620007ab57fe5b021790555090505060008090505b83518110156200084b576001848281518110620007d257fe5b602002602001015190806001815401808255809150509060018203906000526020600020016000909192909190916101000a81548173ffffffffffffffffffffffffffffffffffffffff021916908373ffffffffffffffffffffffffffffffffffffffff160217905550508080600101915050620007b9565b5050505062000ed1565b82805482825590600052602060002090601f01602090048101928215620008ef5791602002820160005b83821115620008be57835183826101000a81548160ff02191690831515021790555092602001926001016020816000010492830192600103026200087f565b8015620008ed5782816101000a81549060ff0219169055600101602081600001049283019260010302620008be565b505b509050620008fe919062000a36565b5090565b828054600181600116156101000203166002900490600052602060002090601f016020900481019282601f106200094557805160ff191683800117855562000976565b8280016001018555821562000976579182015b828111156200097557825182559160200191906001019062000958565b5b50905062000985919062000a69565b5090565b82805482825590600052602060002090601f0160209004810192821562000a235791602002820160005b83821115620009f257835183826101000a81548160ff0219169083151502179055509260200192600101602081600001049283019260010302620009b3565b801562000a215782816101000a81549060ff0219169055600101602081600001049283019260010302620009f2565b505b50905062000a32919062000a36565b5090565b62000a6691905b8082111562000a6257600081816101000a81549060ff02191690555060010162000a3d565b5090565b90565b62000a8e91905b8082111562000a8a57600081600090555060010162000a70565b5090565b90565b60008151905062000aa28162000e9d565b92915050565b600082601f83011262000aba57600080fd5b815162000ad162000acb8262000d81565b62000d53565b9150818183526020840193506020810190508385602084028201111562000af757600080fd5b60005b8381101562000b2b578162000b10888262000a91565b84526020840193506020830192505060018101905062000afa565b5050505092915050565b600082601f83011262000b4757600080fd5b815162000b5e62000b588262000daa565b62000d53565b9150818183526020840193506020810190508360005b8381101562000ba8578151860162000b8d888262000c3f565b84526020840193506020830192505060018101905062000b74565b5050505092915050565b600082601f83011262000bc457600080fd5b815162000bdb62000bd58262000dd3565b62000d53565b9150818183526020840193506020810190508385602084028201111562000c0157600080fd5b60005b8381101562000c35578162000c1a888262000c9b565b84526020840193506020830192505060018101905062000c04565b5050505092915050565b600082601f83011262000c5157600080fd5b815162000c6862000c628262000dfc565b62000d53565b9150808252602083016020830185838301111562000c8557600080fd5b62000c9283828462000e67565b50505092915050565b60008151905062000cac8162000eb7565b92915050565b60008060006060848603121562000cc857600080fd5b600084015167ffffffffffffffff81111562000ce357600080fd5b62000cf18682870162000aa8565b935050602084015167ffffffffffffffff81111562000d0f57600080fd5b62000d1d8682870162000b35565b925050604084015167ffffffffffffffff81111562000d3b57600080fd5b62000d498682870162000bb2565b9150509250925092565b6000604051905081810181811067ffffffffffffffff8211171562000d7757600080fd5b8060405250919050565b600067ffffffffffffffff82111562000d9957600080fd5b602082029050602081019050919050565b600067ffffffffffffffff82111562000dc257600080fd5b602082029050602081019050919050565b600067ffffffffffffffff82111562000deb57600080fd5b602082029050602081019050919050565b600067ffffffffffffffff82111562000e1457600080fd5b601f19601f8301169050602081019050919050565b600062000e368262000e3d565b9050919050565b600073ffffffffffffffffffffffffffffffffffffffff82169050919050565b6000819050919050565b60005b8381101562000e8757808201518184015260208101905062000e6a565b8381111562000e97576000848401525b50505050565b62000ea88162000e29565b811462000eb457600080fd5b50565b62000ec28162000e5d565b811462000ece57600080fd5b50565b6121038062000ee16000396000f3fe608060405234801561001057600080fd5b50600436106100625760003560e01c8063051e873f146100675780634abefa361461008557806378ceca2b146100a35780639962759d146100bf578063ee674852146100db578063f1cdc67a146100f7575b600080fd5b61006f610113565b60405161007c9190611df2565b60405180910390f35b61008d6104ee565b60405161009a9190611dd0565b60405180910390f35b6100bd60048036036100b891908101906119c5565b6106fc565b005b6100d960048036036100d491908101906119c5565b610acd565b005b6100f560048036036100f09190810190611921565b610dab565b005b610111600480360361010c919081019061194a565b6111ac565b005b606033600080905060008090505b6001805490508110156101ab578273ffffffffffffffffffffffffffffffffffffffff166001828154811061015257fe5b9060005260206000200160009054906101000a900473ffffffffffffffffffffffffffffffffffffffff1673ffffffffffffffffffffffffffffffffffffffff16141561019e57600191505b8080600101915050610121565b50806101ec576040517f08c379a00000000000000000000000000000000000000000000000000000000081526004016101e390611e14565b60405180910390fd5b600160088111156101f957fe5b6000803373ffffffffffffffffffffffffffffffffffffffff1673ffffffffffffffffffffffffffffffffffffffff16815260200190815260200160002060030160009054906101000a900460ff16600881111561025357fe5b14610293576040517f08c379a000000000000000000000000000000000000000000000000000000000815260040161028a90611e34565b60405180910390fd5b60606001805490506040519080825280602002602001820160405280156102d457816020015b6102c1611695565b8152602001906001900390816102b95790505b50905060008090505b6001805490508110156104e457600080600183815481106102fa57fe5b9060005260206000200160009054906101000a900473ffffffffffffffffffffffffffffffffffffffff1673ffffffffffffffffffffffffffffffffffffffff1673ffffffffffffffffffffffffffffffffffffffff168152602001908152602001600020604051806080016040529081600082018054600181600116156101000203166002900480601f0160208091040260200160405190810160405280929190818152602001828054600181600116156101000203166002900480156104035780601f106103d857610100808354040283529160200191610403565b820191906000526020600020905b8154815290600101906020018083116103e657829003601f168201915b50505050508152602001600182015481526020016002820180548060200260200160405190810160405280929190818152602001828054801561048a57602002820191906000526020600020906000905b82829054906101000a900460ff161515815260200190600101906020826000010492830192600103820291508084116104545790505b505050505081526020016003820160009054906101000a900460ff1660088111156104b157fe5b60088111156104bc57fe5b815250508282815181106104cc57fe5b602002602001018190525080806001019150506102dd565b5080935050505090565b606033600080905060008090505b600180549050811015610586578273ffffffffffffffffffffffffffffffffffffffff166001828154811061052d57fe5b9060005260206000200160009054906101000a900473ffffffffffffffffffffffffffffffffffffffff1673ffffffffffffffffffffffffffffffffffffffff16141561057957600191505b80806001019150506104fc565b50806105c7576040517f08c379a00000000000000000000000000000000000000000000000000000000081526004016105be90611e14565b60405180910390fd5b600160088111156105d457fe5b6000803373ffffffffffffffffffffffffffffffffffffffff1673ffffffffffffffffffffffffffffffffffffffff16815260200190815260200160002060030160009054906101000a900460ff16600881111561062e57fe5b1461066e576040517f08c379a000000000000000000000000000000000000000000000000000000000815260040161066590611e34565b60405180910390fd5b60018054806020026020016040519081016040528092919081815260200182805480156106f057602002820191906000526020600020905b8160009054906101000a900473ffffffffffffffffffffffffffffffffffffffff1673ffffffffffffffffffffffffffffffffffffffff16815260200190600101908083116106a6575b50505050509250505090565b33600080905060008090505b600180549050811015610792578273ffffffffffffffffffffffffffffffffffffffff166001828154811061073957fe5b9060005260206000200160009054906101000a900473ffffffffffffffffffffffffffffffffffffffff1673ffffffffffffffffffffffffffffffffffffffff16141561078557600191505b8080600101915050610708565b50806107d3576040517f08c379a00000000000000000000000000000000000000000000000000000000081526004016107ca90611e14565b60405180910390fd5b83600080905060008090505b600180549050811015610869578273ffffffffffffffffffffffffffffffffffffffff166001828154811061081057fe5b9060005260206000200160009054906101000a900473ffffffffffffffffffffffffffffffffffffffff1673ffffffffffffffffffffffffffffffffffffffff16141561085c57600191505b80806001019150506107df565b50806108aa576040517f08c379a00000000000000000000000000000000000000000000000000000000081526004016108a190611e14565b60405180910390fd5b600160088111156108b757fe5b6000803373ffffffffffffffffffffffffffffffffffffffff1673ffffffffffffffffffffffffffffffffffffffff16815260200190815260200160002060030160009054906101000a900460ff16600881111561091157fe5b14610951576040517f08c379a000000000000000000000000000000000000000000000000000000000815260040161094890611e34565b60405180910390fd5b846000811015801561096e575060088081111561096a57fe5b8111155b6109ad576040517f08c379a00000000000000000000000000000000000000000000000000000000081526004016109a490611e54565b60405180910390fd5b60036000808973ffffffffffffffffffffffffffffffffffffffff1673ffffffffffffffffffffffffffffffffffffffff1681526020019081526020016000206002019080546109fe9291906116c8565b50856008811115610a0b57fe5b6000808973ffffffffffffffffffffffffffffffffffffffff1673ffffffffffffffffffffffffffffffffffffffff16815260200190815260200160002060030160006101000a81548160ff02191690836008811115610a6757fe5b0217905550610ac4876000803373ffffffffffffffffffffffffffffffffffffffff1673ffffffffffffffffffffffffffffffffffffffff16815260200190815260200160002060030160009054906101000a900460ff166115a7565b50505050505050565b33600080905060008090505b600180549050811015610b63578273ffffffffffffffffffffffffffffffffffffffff1660018281548110610b0a57fe5b9060005260206000200160009054906101000a900473ffffffffffffffffffffffffffffffffffffffff1673ffffffffffffffffffffffffffffffffffffffff161415610b5657600191505b8080600101915050610ad9565b5080610ba4576040517f08c379a0000000000000000000000000000000000000000000000000000000008152600401610b9b90611e14565b60405180910390fd5b83600080905060008090505b600180549050811015610c3a578273ffffffffffffffffffffffffffffffffffffffff1660018281548110610be157fe5b9060005260206000200160009054906101000a900473ffffffffffffffffffffffffffffffffffffffff1673ffffffffffffffffffffffffffffffffffffffff161415610c2d57600191505b8080600101915050610bb0565b5080610c7b576040517f08c379a0000000000000000000000000000000000000000000000000000000008152600401610c7290611e14565b60405180910390fd5b60016008811115610c8857fe5b6000803373ffffffffffffffffffffffffffffffffffffffff1673ffffffffffffffffffffffffffffffffffffffff16815260200190815260200160002060030160009054906101000a900460ff166008811115610ce257fe5b14610d22576040517f08c379a0000000000000000000000000000000000000000000000000000000008152600401610d1990611e34565b60405180910390fd5b846000808873ffffffffffffffffffffffffffffffffffffffff1673ffffffffffffffffffffffffffffffffffffffff168152602001908152602001600020600101819055507fad01cc3de7470825364bfa2d94686858aa5a0b1cdbf24fb1f547bb15c5fffc3c868642604051610d9b93929190611d99565b60405180910390a1505050505050565b33600080905060008090505b600180549050811015610e41578273ffffffffffffffffffffffffffffffffffffffff1660018281548110610de857fe5b9060005260206000200160009054906101000a900473ffffffffffffffffffffffffffffffffffffffff1673ffffffffffffffffffffffffffffffffffffffff161415610e3457600191505b8080600101915050610db7565b5080610e82576040517f08c379a0000000000000000000000000000000000000000000000000000000008152600401610e7990611e14565b60405180910390fd5b82600080905060008090505b600180549050811015610f18578273ffffffffffffffffffffffffffffffffffffffff1660018281548110610ebf57fe5b9060005260206000200160009054906101000a900473ffffffffffffffffffffffffffffffffffffffff1673ffffffffffffffffffffffffffffffffffffffff161415610f0b57600191505b8080600101915050610e8e565b5080610f59576040517f08c379a0000000000000000000000000000000000000000000000000000000008152600401610f5090611e14565b60405180910390fd5b60006008811115610f6657fe5b6000803373ffffffffffffffffffffffffffffffffffffffff1673ffffffffffffffffffffffffffffffffffffffff16815260200190815260200160002060030160009054906101000a900460ff166008811115610fc057fe5b1480611030575060016008811115610fd457fe5b6000803373ffffffffffffffffffffffffffffffffffffffff1673ffffffffffffffffffffffffffffffffffffffff16815260200190815260200160002060030160009054906101000a900460ff16600881111561102e57fe5b145b8061109f57506002600881111561104357fe5b6000803373ffffffffffffffffffffffffffffffffffffffff1673ffffffffffffffffffffffffffffffffffffffff16815260200190815260200160002060030160009054906101000a900460ff16600881111561109d57fe5b145b8061110e5750600360088111156110b257fe5b6000803373ffffffffffffffffffffffffffffffffffffffff1673ffffffffffffffffffffffffffffffffffffffff16815260200190815260200160002060030160009054906101000a900460ff16600881111561110c57fe5b145b61114d576040517f08c379a000000000000000000000000000000000000000000000000000000000815260040161114490611e74565b60405180910390fd5b6111a5856000803373ffffffffffffffffffffffffffffffffffffffff1673ffffffffffffffffffffffffffffffffffffffff16815260200190815260200160002060030160009054906101000a900460ff166115a7565b5050505050565b33600080905060008090505b600180549050811015611242578273ffffffffffffffffffffffffffffffffffffffff16600182815481106111e957fe5b9060005260206000200160009054906101000a900473ffffffffffffffffffffffffffffffffffffffff1673ffffffffffffffffffffffffffffffffffffffff16141561123557600191505b80806001019150506111b8565b5080611283576040517f08c379a000000000000000000000000000000000000000000000000000000000815260040161127a90611e14565b60405180910390fd5b6001600881111561129057fe5b6000803373ffffffffffffffffffffffffffffffffffffffff1673ffffffffffffffffffffffffffffffffffffffff16815260200190815260200160002060030160009054906101000a900460ff1660088111156112ea57fe5b1461132a576040517f08c379a000000000000000000000000000000000000000000000000000000000815260040161132190611e34565b60405180910390fd5b8260008110158015611347575060088081111561134357fe5b8111155b611386576040517f08c379a000000000000000000000000000000000000000000000000000000000815260040161137d90611e54565b60405180910390fd5b6040518060800160405280878152602001868152602001600380548060200260200160405190810160405280929190818152602001828054801561140e57602002820191906000526020600020906000905b82829054906101000a900460ff161515815260200190600101906020826000010492830192600103820291508084116113d85790505b5050505050815260200185600881111561142457fe5b600881111561142f57fe5b8152506000808973ffffffffffffffffffffffffffffffffffffffff1673ffffffffffffffffffffffffffffffffffffffff168152602001908152602001600020600082015181600001908051906020019061148c929190611728565b506020820151816001015560408201518160020190805190602001906114b39291906117a8565b5060608201518160030160006101000a81548160ff021916908360088111156114d857fe5b021790555090505060018790806001815401808255809150509060018203906000526020600020016000909192909190916101000a81548173ffffffffffffffffffffffffffffffffffffffff021916908373ffffffffffffffffffffffffffffffffffffffff1602179055505061159e876000803373ffffffffffffffffffffffffffffffffffffffff1673ffffffffffffffffffffffffffffffffffffffff16815260200190815260200160002060030160009054906101000a900460ff166115a7565b50505050505050565b8060088111156115b357fe5b600081101580156115cf57506008808111156115cb57fe5b8111155b61160e576040517f08c379a000000000000000000000000000000000000000000000000000000000815260040161160590611e54565b60405180910390fd5b60016000808573ffffffffffffffffffffffffffffffffffffffff1673ffffffffffffffffffffffffffffffffffffffff16815260200190815260200160002060020183600881111561165d57fe5b8154811061166757fe5b90600052602060002090602091828204019190066101000a81548160ff021916908315150217905550505050565b6040518060800160405280606081526020016000815260200160608152602001600060088111156116c257fe5b81525090565b82805482825590600052602060002090601f0160209004810192821561171757600052602060002091601f016020900482015b828111156117165782548255916001019190600101906116fb565b5b509050611724919061184e565b5090565b828054600181600116156101000203166002900490600052602060002090601f016020900481019282601f1061176957805160ff1916838001178555611797565b82800160010185558215611797579182015b8281111561179657825182559160200191906001019061177b565b5b5090506117a4919061187e565b5090565b82805482825590600052602060002090601f0160209004810192821561183d5791602002820160005b8382111561180e57835183826101000a81548160ff02191690831515021790555092602001926001016020816000010492830192600103026117d1565b801561183b5782816101000a81549060ff021916905560010160208160000104928301926001030261180e565b505b50905061184a919061184e565b5090565b61187b91905b8082111561187757600081816101000a81549060ff021916905550600101611854565b5090565b90565b6118a091905b8082111561189c576000816000905550600101611884565b5090565b90565b6000813590506118b281612092565b92915050565b600082601f8301126118c957600080fd5b81356118dc6118d782611ec1565b611e94565b915080825260208301602083018583830111156118f857600080fd5b611903838284612032565b50505092915050565b60008135905061191b816120a9565b92915050565b60006020828403121561193357600080fd5b6000611941848285016118a3565b91505092915050565b6000806000806080858703121561196057600080fd5b600061196e878288016118a3565b945050602085013567ffffffffffffffff81111561198b57600080fd5b611997878288016118b8565b93505060406119a88782880161190c565b92505060606119b98782880161190c565b91505092959194509250565b600080604083850312156119d857600080fd5b60006119e6858286016118a3565b92505060206119f78582860161190c565b9150509250929050565b6000611a0d8383611a45565b60208301905092915050565b6000611a258383611b94565b60208301905092915050565b6000611a3d8383611d11565b905092915050565b611a4e81611fc5565b82525050565b611a5d81611fc5565b82525050565b6000611a6e82611f1d565b611a788185611f70565b9350611a8383611eed565b8060005b83811015611ab4578151611a9b8882611a01565b9750611aa683611f49565b925050600181019050611a87565b5085935050505092915050565b6000611acc82611f28565b611ad68185611f81565b9350611ae183611efd565b8060005b83811015611b12578151611af98882611a19565b9750611b0483611f56565b925050600181019050611ae5565b5085935050505092915050565b6000611b2a82611f33565b611b348185611f92565b935083602082028501611b4685611f0d565b8060005b85811015611b825784840389528151611b638582611a31565b9450611b6e83611f63565b925060208a01995050600181019050611b4a565b50829750879550505050505092915050565b611b9d81611fd7565b82525050565b611bac81612020565b82525050565b6000611bbd82611f3e565b611bc78185611fa3565b9350611bd7818560208601612041565b611be081612074565b840191505092915050565b6000611bf8601783611fb4565b91507f456d706c6f79656520646f65736e2774206578697374210000000000000000006000830152602082019050919050565b6000611c38601383611fb4565b91507f596f7520617265206e6f742074686520485221000000000000000000000000006000830152602082019050919050565b6000611c78602183611fb4565b91507f54686520706f736974696f6e206e756d626572206973206e6f742076616c696460008301527f2e000000000000000000000000000000000000000000000000000000000000006020830152604082019050919050565b6000611cde601283611fb4565b91507f596f7520617265206e6f742061646d696e2100000000000000000000000000006000830152602082019050919050565b60006080830160008301518482036000860152611d2e8282611bb2565b9150506020830151611d436020860182611d7b565b5060408301518482036040860152611d5b8282611ac1565b9150506060830151611d706060860182611ba3565b508091505092915050565b611d8481612016565b82525050565b611d9381612016565b82525050565b6000606082019050611dae6000830186611a54565b611dbb6020830185611d8a565b611dc86040830184611d8a565b949350505050565b60006020820190508181036000830152611dea8184611a63565b905092915050565b60006020820190508181036000830152611e0c8184611b1f565b905092915050565b60006020820190508181036000830152611e2d81611beb565b9050919050565b60006020820190508181036000830152611e4d81611c2b565b9050919050565b60006020820190508181036000830152611e6d81611c6b565b9050919050565b60006020820190508181036000830152611e8d81611cd1565b9050919050565b6000604051905081810181811067ffffffffffffffff82111715611eb757600080fd5b8060405250919050565b600067ffffffffffffffff821115611ed857600080fd5b601f19601f8301169050602081019050919050565b6000819050602082019050919050565b6000819050602082019050919050565b6000819050602082019050919050565b600081519050919050565b600081519050919050565b600081519050919050565b600081519050919050565b6000602082019050919050565b6000602082019050919050565b6000602082019050919050565b600082825260208201905092915050565b600082825260208201905092915050565b600082825260208201905092915050565b600082825260208201905092915050565b600082825260208201905092915050565b6000611fd082611ff6565b9050919050565b60008115159050919050565b6000819050611ff182612085565b919050565b600073ffffffffffffffffffffffffffffffffffffffff82169050919050565b6000819050919050565b600061202b82611fe3565b9050919050565b82818337600083830152505050565b60005b8381101561205f578082015181840152602081019050612044565b8381111561206e576000848401525b50505050565b6000601f19601f8301169050919050565b6009811061208f57fe5b50565b61209b81611fc5565b81146120a657600080fd5b50565b6120b281612016565b81146120bd57600080fd5b5056fea365627a7a72315820f5d2bb46cc99804241eff798052d487e7be14969739574123ef5e1bd4f18e7656c6578706572696d656e74616cf564736f6c63430005100040",
  "source": "pragma experimental ABIEncoderV2;\n\ncontract EmployeeContract {\n    enum Position{\n        CEO,// 0\n        HR, // 1\n        FINC,// 2\n        MKT, // 3\n        CEO_SCRT,// 4\n        HR_SCRT,// 5\n        FINC_SCRT,// 6\n        MKT_SCRT, // 7\n        COSTUMER_SUPPORT // 8\n    }\n\n    struct Employee {\n        string name;\n        uint salary;\n        bool[] approvals;\n        Position position;\n    }\n\n    mapping (address => Employee) contracts;\n    address[] employees;\n    bool[] default_approvals = [true,true,true,true];\n    bool[] default_approvals_restart = [false,false,false,false];\n    event ChangeOfSalaryEvent(address _employee, uint _newSalary, uint _now);\n\n    constructor(address[] memory _addresses, string[] memory _names, uint[] memory _salaries) public {\n        contracts[_addresses[uint256(Position.CEO)]] = Employee(_names[uint256(Position.CEO)],_salaries[uint256(Position.CEO)],default_approvals,Position.CEO);\n        contracts[_addresses[uint256(Position.HR)]] = Employee(_names[uint256(Position.HR)],_salaries[uint256(Position.HR)],default_approvals,Position.HR);\n        contracts[_addresses[uint256(Position.FINC)]] = Employee(_names[uint256(Position.FINC)],_salaries[uint256(Position.FINC)],default_approvals,Position.FINC);\n        contracts[_addresses[uint256(Position.MKT)]] = Employee(_names[uint256(Position.MKT)],_salaries[uint256(Position.MKT)],default_approvals,Position.MKT);\n        for(uint i=0;i<_addresses.length;i++){\n            employees.push(_addresses[i]);\n        }\n    }\n    // ********************************************************\n    modifier isEmployee(address _employee) {\n        bool exists = false;\n        for(uint i=0;i<employees.length;i++){\n            if(employees[i] == _employee){\n                exists = true;\n            }\n        }\n        require(exists,\"Employee doesn't exist!\");\n        _;\n    }\n    modifier onlyHR() {\n        require(contracts[msg.sender].position == Position.HR, \"You are not the HR!\");\n        _;\n    }\n    modifier validPosition(uint256 _positionIndex) {\n        require(_positionIndex >= 0 && _positionIndex <= uint256(Position.COSTUMER_SUPPORT),\"The position number is not valid.\");\n        _;\n    }\n    modifier isAdmin() {\n        require(\n            contracts[msg.sender].position == Position.CEO ||\n            contracts[msg.sender].position == Position.HR ||\n            contracts[msg.sender].position == Position.FINC ||\n            contracts[msg.sender].position == Position.MKT,\n            \"You are not admin!\");\n        _;\n    }\n    // ********************************************************\n    function getEmployees() public isEmployee(msg.sender) onlyHR view returns (address[] memory) {\n        return employees;\n    }\n    function modifySalary(address _employee, uint _newSalary) public isEmployee(msg.sender) isEmployee(_employee) onlyHR {\n        contracts[_employee].salary = _newSalary;\n        emit ChangeOfSalaryEvent(_employee, _newSalary, block.timestamp);\n    }\n    function _approveEmployeePosition(address _employee, Position _approverPosition) private validPosition(uint256(_approverPosition)) {\n        contracts[_employee].approvals[uint256(_approverPosition)] = true;\n    }\n    function changeEmployeePosition(address _employee, uint _newPosition) public isEmployee(msg.sender) isEmployee(_employee) onlyHR validPosition(_newPosition) {\n        contracts[_employee].approvals = default_approvals_restart;\n        contracts[_employee].position = Position(_newPosition);\n        _approveEmployeePosition(_employee, contracts[msg.sender].position);\n    }\n    function approveEmployeePosition(address _employee) public isEmployee(msg.sender) isEmployee(_employee) isAdmin {\n        _approveEmployeePosition(_employee, contracts[msg.sender].position);\n    }\n    function addNewEmployee(address _employee, string memory _name, uint _salary, uint _position) public isEmployee(msg.sender) onlyHR validPosition(_position) {\n        contracts[_employee] = Employee(_name,_salary,default_approvals_restart,Position(_position));\n        employees.push(_employee);\n        _approveEmployeePosition(_employee, contracts[msg.sender].position);\n    }\n    function getEmployeesInfo() public isEmployee(msg.sender) onlyHR view returns (Employee[] memory) {\n        Employee[] memory _employees = new Employee[](employees.length);\n        for(uint i=0;i<employees.length;i++){\n            _employees[i] = contracts[employees[i]];\n        }\n        return _employees;\n    }\n\n}\n\n",
  "sourcePath": "/home/blubu/learning/it480/employeecontract/contracts/EmployeeContract.sol",
  "compiler": {
    "name": "solc",
    "version": "0.5.16+commit.9c3226ce.Emscripten.clang"
  },
  "schemaVersion": "3.4.1",
  "updatedAt": "2021-07-07T08:29:29.693Z",
  "networkType": "ethereum",
  "devdoc": {
    "methods": {}
  },
  "userdoc": {
    "methods": {}
  }
}